:060000000A128A110E280D
:10000800FE00030EFB000408FC000A08FD000A12AB
:100018008A11D1290A128A1111280A128A11552225
:100028000A128A11B40083132030840032300A1275
:100038008A1147220A128A1183010A128A110C2A8C
:10004800F601F11F282829283028F009F109F00ABB
:100058000319F10AF601F60AF31F332834283D285C
:10006800F209F309F20A0319F30A0130F4007408DB
:10007800F606F701F80170087104031944284528A9
:100088007C28F501F50A532801300310F00DF10D15
:10009800FF3E031D49280130F4007408F507F11FDD
:1000A80056285728482801300310F70DF80DFF3E51
:1000B800031D582871087302031D64287008720212
:1000C800031C672868286F287008F2027108031C4F
:1000D800F303F302771401300310F10CF00CFF3E28
:1000E800031D70280130F502031D7B287C28572842
:1000F80076080319802881288628F709F809F70A5D
:100108000319F80A7808F1007708F0000800C328F6
:100118003F30F0000030F100EB280630F0000030EE
:10012800F100EB285B30F0000030F100EB284F3095
:10013800F0000030F100EB286630F0000030F100EC
:10014800EB286D30F0000030F100EB287D30F00036
:100158000030F100EB280730F0000030F100EB2808
:100168007F30F0000030F100EB286F30F0000030F5
:10017800F100EB287B30F0000030F100EB2871082B
:10018800003A0319C828EB287008003A03198C288C
:10019800013A03199128033A03199628013A0319D9
:1001A8009B28073A0319A028013A0319A528033AFE
:1001B8000319AA28013A0319AF280F3A0319B428DA
:1001C800013A0319B928033A0319BE28EB28080095
:1001D800F601F31FF028F128F828F209F309F20ACA
:1001E8000319F30AF601F60AF11FFB28FC28012976
:1001F800F009F109F00A0319F10A700871040319EA
:10020800062907293629F501F50A152901300310B1
:10021800F00DF10DFF3E031D0B290130F4007408A9
:10022800F507F11F182919290A2971087302031DF6
:100238001F2970087202031C222923292929700802
:10024800F2027108031CF303F30201300310F10CEE
:10025800F00CFF3E031D2A290130F502031D352944
:1002680036291929760803193A293B294029F20920
:10027800F309F20A0319F30A7308F1007208F0008F
:10028800080083120313340889003403031D4D2921
:100298004E2960292B08F1002A08F0000A128A1159
:1002A8008B200A128A117008831203138800023007
:1002B800F2007208B4008D2902303406031D652946
:1002C800662978292908F1002808F0000A128A11FD
:1002D8008B200A128A1170088312031388000430D5
:1002E800F2007208B4008D2904303406031D7D29FC
:1002F8007E298D292708F1002608F0000A128A11A4
:100308008B200A128A117008831203138800B40123
:10031800B40A0800033083160317880089010330E4
:10032800831603138500870188018901831203134B
:100338008501880187018901831603130F088F3906
:1003480060388F000F148112011281110115811478
:100358000114ED30831203138100831603139F13D6
:100368001F129F12831203131F083F3940389F0042
:10037800C3309F051F140F3083120313B200B20B52
:10038800C329C6290B118B168B17831203130C1361
:10039800831603130C170B170800831203130C1F83
:1003A800D629D729F5291F0CF900790C0F39013AFC
:1003B800031DDF29E029ED291E08F900FA01790853
:1003C800B0007A08B1000310300DAE00310DAF0057
:1003D800EF291E0887000C130A128A1136220A1206
:1003E8008A110B1DF829F929032A0A128A114F22AA
:1003F8000A128A110A128A1145210A128A117D08E5
:100408008A007C0884007B0E8300FE0E7E0E0900A5
:100418000A128A118E210A128A11831203139F1459
:100428009F18172A182A142A1F0CB300330C0F39E7
:10043800013A031D202A212A242AC3309F05282A8D
:100448001F08C33904389F000F3083120313B30009
:10045800B30B2C2A2F2A831203139F14142A0A126F
:100468008A110E28831203132E0888002B08A10076
:100478002A08A0002908A3002808A2002708A50028
:100488002608A400080064008001840A04060319F1
:1004980000340406482A0B11ED308312031381003F
:0404A8000800013413
:04400E00D420FF3F7C
:00000001FF
