:060000000A128A11122809
:10000800FE00030E83120313B4000408B5000A08A7
:10001800B6007F08B7000A128A11362A0A128A1116
:1000280015280A128A11AB220A128A11BA00831300
:100038002030840032300A128A119D220A128A1155
:1000480083010A128A11732AF601F11F2C282D2820
:100058003428F009F109F00A0319F10AF601F60A41
:10006800F31F372838284128F209F309F20A03193F
:10007800F30A0130F4007408F606F701F801700875
:1000880071040319482849288028F501F50A5728DA
:1000980001300310F00DF10DFF3E031D4D28013016
:1000A800F4007408F507F11F5A285B284C28013022
:1000B8000310F70DF80DFF3E031D5C28710873024D
:1000C800031D682870087202031C6B286C287328AB
:1000D8007008F2027108031CF303F302771401306D
:1000E8000310F10CF00CFF3E031D74280130F502DB
:1000F800031D7F2880285B28760803198428852813
:100108008A28F709F809F70A0319F80A7808F100A4
:100118007708F0000800FC01FD010A30F00000300B
:10012800F100831203132F08F3002E08F2000A12BD
:100138008A1151210A128A117C08F9007907203E98
:100148008400700883138000840A710880000A30D4
:10015800F0000030F1007C08F9007907203E8400A7
:100168000008FA00840A0008FB007A0883120313C7
:100178002E02F2007B08031C7B0A2F02F3000A12EE
:100188008A1128200A128A11710883120313AF00FA
:100198007008AE000130FC070318FD0A0030FD07A7
:1001A8007D08803AFF0080307F02031DDD28033080
:1001B8007C02031CE028E1289128831203132B08F2
:1001C800A1002A08A0002908A3002808A2002708DF
:1001D800A5002608A400080028293F30F0000030B8
:1001E800F10050290630F0000030F10050295B3052
:1001F800F0000030F10050294F30F0000030F100DD
:1002080050296630F0000030F10050296D30F000C0
:100218000030F10050297D30F0000030F100502905
:100228000730F0000030F10050297F30F000003036
:10023800F10050296F30F0000030F10050297B3078
:10024800F0000030F10050297108003A03192D29F7
:1002580050297008003A0319F128013A0319F628C1
:10026800033A0319FB28013A03190029073A03192D
:100278000529013A03190A29033A03190F29013AF2
:10028800031914290F3A03191929013A03191E29C8
:10029800033A0319232950290800F601F31F5529A9
:1002A80056295D29F209F309F20A0319F30AF6013E
:1002B800F60AF11F602961296629F009F109F00A97
:1002C8000319F10A7008710403196B296C299B2919
:1002D800F501F50A7A2901300310F00DF10DFF3E02
:1002E800031D70290130F4007408F507F11F7D29FA
:1002F8007E296F2971087302031D84297008720210
:10030800031C872988298E297008F2027108031CAA
:10031800F303F30201300310F10CF00CFF3E031D50
:100328008F290130F502031D9A299B297E29760819
:1003380003199F29A029A529F209F309F20A03192B
:10034800F30A7308F1007208F0000800831203131F
:100358003A0889003A03031DB229B329C5292B0895
:10036800F1002A08F0000A128A11F0200A128A11F4
:1003780070088312031388000230F2007208BA0072
:10038800F22902303A06031DCA29CB29DD2929089A
:10039800F1002808F0000A128A11F0200A128A11C6
:1003A80070088312031388000430F2007208BA0040
:1003B800F22904303A06031DE229E329F229270825
:1003C800F1002608F0000A128A11F0200A128A1198
:1003D8007008831203138800BA01BA0A08000330B0
:1003E80083160317880089010330831603138500D9
:1003F8008701880189018312031385018801870118
:100408008901831603130F088F3960388F000F1482
:10041800811201128111011581140114ED3083122A
:1004280003138100831603139F131F129F12831255
:1004380003131F083F3940389F00C3309F051F141E
:100448000F3083120313B800B80B282A2B2A0B117C
:100458008B168B17831203130C13831603130C17B5
:100468000B1708000C1F392A3A2A582A1F0CB20009
:10047800320C0F39013A031D422A432A502A1E081A
:10048800B200B3013208B0003308B1000310300DD8
:10049800AE00310DAF00522A1E0887000C130A1255
:1004A8008A118F200A128A110B1D5B2A5C2A662A80
:1004B8000A128A11A5220A128A110A128A11AA217D
:1004C8000A128A11831203133708FF0036088A00BC
:1004D80035088400340E8300FE0E7E0E09000A12D1
:1004E8008A11F3210A128A11831203139F149F1889
:1004F8007E2A7F2A7B2A1F0CB900390C0F39013A52
:10050800031D872A882A8B2AC3309F058F2A1F0834
:10051800C33904389F000F3083120313B900B90B95
:10052800932A962A831203139F147B2A0A128A118C
:10053800122864008001840A0406031900340406A2
:100548009E2A0B11ED308312031381000800013439
:04400E00D420FF3F7C
:00000001FF
