:060000000A128A11122809
:10000800FE00030E83120313AD000408AE000A08B5
:10001800AF007F08B0000A128A118B2A0A128A11CF
:1000280015280A128A1100230A128A11B300A001A6
:10003800A101A201A301A401A501A601A701A8018C
:10004800A901AA0183010A128A11C82AF601F11F1F
:100058002E282F283628F009F109F00A0319F10A89
:10006800F601F60AF31F39283A284328F209F3095A
:10007800F20A0319F30A0130F4007408F606F701CE
:10008800F8017008710403194A284B288228F501E1
:10009800F50A592801300310F00DF10DFF3E031D3C
:1000A8004F280130F4007408F507F11F5C285D281B
:1000B8004E2801300310F70DF80DFF3E031D5E2892
:1000C80071087302031D6A2870087202031C6D28E8
:1000D8006E2875287008F2027108031CF303F302F6
:1000E800771401300310F10CF00CFF3E031D762845
:1000F8000130F502031D812882285D28760803193E
:10010800862887288C28F709F809F70A0319F80AB6
:100118007808F1007708F0000800C928BF30F0001F
:100128000030F100F1288630F0000030F100F128AD
:10013800DB30F0000030F100F128CF30F000003063
:10014800F100F128E630F0000030F100F128ED3040
:10015800F0000030F100F128FD30F0000030F1002F
:10016800F1288730F0000030F100F128FF30F0006E
:100178000030F100F128EF30F0000030F100F128F4
:10018800FB30F0000030F100F1287108003A031943
:10019800CE28F1287008003A03199228013A031969
:1001A8009728033A03199C28013A0319A128073A0A
:1001B8000319A628013A0319AB28033A0319B028F2
:1001C800013A0319B5280F3A0319BA28013A031955
:1001D800BF28033A0319C428F12808002A293F3008
:1001E800F0000030F10052290630F0000030F10034
:1001F80052295B30F0000030F10052294F30F000F6
:100208000030F10052296630F0000030F100522928
:100218006D30F0000030F10052297D30F0000030E0
:10022800F10052290730F0000030F10052297F30E8
:10023800F0000030F10052296F30F0000030F1007A
:1002480052297B30F0000030F10052297108003A41
:1002580003192F2952297008003A0319F328013A83
:100268000319F828033A0319FD28013A031902294A
:10027800073A03190729013A03190C29033A031904
:100288001129013A031916290F3A03191B29013AB2
:1002980003192029033A0319252952290800F601D0
:1002A800F31F572958295F29F209F309F20A03199C
:1002B800F30AF601F60AF11F622963296829F00991
:1002C800F109F00A0319F10A7008710403196D297C
:1002D8006E299D29F501F50A7C2901300310F00DDE
:1002E800F10DFF3E031D72290130F4007408F50773
:1002F800F11F7F298029712971087302031D86293E
:1003080070087202031C89298A2990297008F20250
:100318007108031CF303F30201300310F10CF00C15
:10032800FF3E031D91290130F502031D9C299D29DB
:10033800802976080319A129A229A729F209F30916
:10034800F20A0319F30A7308F1007208F0000800B2
:10035800FC01FD010A30F0000030F10083120313A4
:100368002708F3002608F2000A128A1153210A12FC
:100378008A117C08F9007907203E840070088313ED
:100388008000840A710880000A30F0000030F10013
:100398007C08F9007907203E84000008FA00840AE6
:1003A8000008FB007A08831203132602F2007B0878
:1003B800031C7B0A2702F3000A128A112A200A1258
:1003C8008A11710883120313A7007008A600013070
:1003D800FC070318FD0A0030FD077D08803AFF007E
:1003E80080307F02031DFA2903307C02031CFD299B
:1003F800FE29AE290800831203133308890033034A
:10040800031D072A082A1A2A2108F1002008F000EB
:100418000A128A11F2200A128A1170088312031331
:1004280088000230F2007208B300472A023033060F
:10043800031D1F2A202A322A2308F1002208F0006F
:100448000A128A11F2200A128A1170088312031301
:1004580088000430F2007208B300472A04303306DB
:10046800031D372A382A472A2508F1002408F000F6
:100478000A128A1191200A128A1170088312031332
:100488008800B301B30A08000330831603178800F5
:1004980089010330831603138500870188018901C8
:1004A80083120313850188018701890183160313C9
:1004B8000F088F3960388F000F14811201128111D3
:1004C800011581140114ED30831203138100831682
:1004D80003139F131F129F12831203131F083F3920
:1004E80040389F00C3309F051F140F308312031339
:1004F800B100B10B7D2A802A0B118B168B17831242
:1005080003130C13831603130C170B1708000C1F87
:100518008E2A8F2AAD2A1F0CAB002B0C0F39013AFB
:10052800031D972A982AA82A1E08AB00AC010310BD
:10053800AB0DAC0D2B08A6002C08A7000A128A11D7
:10054800AC210A128A11AA2A1E08870083120313F3
:100558000C130B1DB02AB12ABB2A0A128A11FA22DF
:100568000A128A110A128A11FF210A128A118312A9
:1005780003133008FF002F088A002E0884002D0E70
:100588008300FE0E7E0E09000A128A1148220A1202
:100598008A11831203139F149F18D32AD42AD02AAE
:1005A8001F0CB200320C0F39013A031DDC2ADD2A78
:1005B800E72AC3309F050F3083120313B200B20B32
:1005C800E32AE62AEC2A1F08C33904389F00DF2AE9
:1005D8000F3083120313B200B20BF02AF32A8312EE
:1005E80003139F14D02A0A128A1112280B11ED3016
:0A05F8008312031381000800013490
:04400E00D420FF3F7C
:00000001FF
