:060000000A128A110C280F
:10000800FE00030EF1000A08F2000A128A116C2899
:100018000A128A110F2883010A128A114428033010
:10002800831603178800890103308316031385009C
:1000380087018801831203138501880187018316CC
:1000480003130F088F3960388F000F149F131F1286
:100058009F12831203131F083F3940389F00C33093
:100068009F051F141030F300F30B382800008B177E
:10007800831203130C13831603130C170B170800B2
:100088000A128A1113200A128A11831203139F1469
:100098009F184F2850284C281F0CF400740C0F3957
:1000A800013A031D582859285C28C3309F05602849
:1000B8001F08C33904389F001030F400F40B62287D
:1000C8000000831203139F144C280A128A110C286B
:1000D800831203130C1F7128722881281F0CF0004B
:1000E800700C0F39013A031D7A287B287E281E08D8
:1000F800880080281E0887000C1372088A00710E79
:080108008300FE0E7E0E0900CB
:04400E00D420FF3F7C
:00000001FF
